:100000000AC019C018C017C016C015C014C013C04C
:1000100012C011C010C011271FBFCFE5D0E0DEBF56
:10002000CDBF20E0A0E4B0E001C01D93A434B2072E
:10003000E1F723D0F5C0E4CF48ED4CBF16BF17BFA2
:1000400044E041B9089560E015C0882311F06417B9
:1000500020F0811306C0641720F052B15B7F52B9C3
:1000600003C052B1546052B94F5F01C040E04F3FEE
:1000700061F76F5F6F3FD1F70895DEDF6BD0D0E09F
:1000800073D08230E9F4D0958D2FDDDFC0E001C060
:10009000CF5F6AD0823011F0C93CD0F3C83C80F405
:1000A00045E041B942B14E7F42B94FEF50E762E0BF
:1000B000415050406040E1F700C0000044E041B9C9
:1000C0000099DECFD0958D2FBEDFDACF42E04BBB5B
:1000D00042B1446042B942B14D7F42B941B146603C
:1000E00041B94AE04A95F1F700C041B14D7F41B9AD
:1000F00041E04BBB4DB340644DBBEC9BFECF4DB3D9
:1001000040614DBB59B342E04BBB42B14B7F42B95A
:1001100042B1426042B941B1466041B94AE04A95B4
:10012000F1F700C041B14D7F41B942B14D7F42B9B5
:1001300041E04BBB4DB340644DBBEC9BFECF4DB398
:1001400040614DBB49B38FEF90E0851B910B840F4D
:10015000911F089545B74D7F45BF46E84DBBB6DFBB
:1001600012A983A910A908953F93CF93DF93C0E00C
:10017000D0E030E008C0AADFC80FD91F41E24A959D
:10018000F1F700003F5F3031B0F342A153A1642F7B
:10019000752F729562956F7067277F7067278C2F18
:1001A0009D2F861B970B682F792F80A181131EC06E
:1001B0006D3371072CF041E040A911A982E02CC0F9
:1001C000642F752F0027660F771F001F660F771F9C
:1001D000001F672F702F461B570BD695C795D695D6
:1001E000C795C40FD51FD3A9C2A916C06431710722
:1001F0001CF410A983E010C041A14F3F51F466DF09
:100200009695982F88279795879593A982A984E03A
:1002100003C04F5F41A981E0DF91CF913F910895E5
:04022000F894FFCF80
:00000001FF
